:100000000C947E000C94A6000C94A6000C94A60000
:100010000C94A6000C94A6000C94A6000C94A600C8
:100020000C94A6000C94A6000C94A6000C94720EDE
:100030000C94A6000C94A6000C94A6000C94A600A8
:100040000C9458080C94A6000C94E1120C94131311
:100050000C94A6000C94A6000C94A6000C94A60088
:100060000C94D1140C94A600EE021903E2022D03A5
:10007000430365035F0365036503650383030003AF
:100080008B07A707B106A7072407A7078F06410616
:10009000A707A707A707A707A7074605A7072706D4
:1000A000A7077B0600000008000201000003040708
:1000B0000000000000000000010204081020408041
:1000C00001020408102001020408102004040404A2
:1000D00004040404020202020202030303030303F2
:1000E00000000000250028002B0000000000240074
:1000F00027002A00A5046E0EB211431311241FBE5F
:10010000CFEFD8E0DEBFCDBF11E0A0E0B1E0ECEB77
:10011000FFE202C005900D92AA3CB107D9F724E096
:10012000AAECB1E001C01D92A93BB207E1F710E0D3
:10013000CEE7D0E004C02197FE010E945B16CA37CB
:10014000D107C9F70E9449080C94DC170C940000F1
:100150000F931F93CF93DF931F92CDB7DEB79EEF20
:10016000980F9231D0F4062F182F682F88E992E06B
:1001700079830E94C70C5981813079F4402F612F17
:1001800088E992E00E94E20C602F812F0F90DF91AE
:10019000CF911F910F910C94360A0F90DF91CF9160
:1001A0001F910F9108950F931F93CF938431B8F54A
:1001B0008B01C82F682F88E992E00E94C70C83301A
:1001C000F9F0843061F58EEF8C0F823180F4EC2FE2
:1001D000F0E0E752FE4F808190E09C01220F331F38
:1001E000820F931FB80183519E4F0E941A10A801DD
:1001F0006C2F88E992E0CF911F910F910C94E20C43
:10020000C33041F08BEF8C0F823020F087EF8C0FE2
:10021000833068F7B8018C2F0E947209E8CFCF9124
:100220001F910F910895DF92EF92FF920F931F930A
:10023000CF93DF93833008F08FC0982F990F990FD9
:10024000990F28E0E22EE90E94E19E1510F494E156
:10025000E92E162F082FD82FDD0FDD0FDD0FC0E0A0
:10026000DD24D394DE1558F58EEF8D0F823120F505
:100270006D2F88E992E00E94C70C813039F06D2F14
:1002800088E992E00E94C70C811116C0FF24F39404
:100290008D2D812309F4F12C6D2F88E992E00E94C5
:1002A000C70C813009F041C0CD294F2D50E06D2F92
:1002B00088E992E00E94E20CDD0CDF5FD3CF0111F0
:1002C0000AC0CC7FF8948BB16C2F60956823C12352
:1002D000C62BCBB928C00130C9F41C23F89495B1C2
:1002E0008C2F8F7380958923912F9F73892B85B9CC
:1002F00088B11295169516951370C295C695C69538
:10030000C370C095C8231C2B18B90DC0CF70F894CA
:1003100088B16C2F660F660F60956823C123CC0FE0
:10032000CC0FC62BC8B9789417C06D2F88E992E01E
:100330000E94C70C8111B9CFFF2009F4B6CF6D2FF1
:1003400088E992E00E94D80C019709F4AECF62E0F0
:100350008D2F0E94FA09A9CFDF91CF911F910F91A4
:10036000FF90EF90DF900895CF93DF931F92CDB76A
:10037000DEB78630A8F540918D0250918E0221E0C3
:1003800030E0672B81F4B90102C0660F771F8A95B0
:10039000E2F7CB01809590958423952390938E026C
:1003A00080938D021DC0082E02C0220F331F0A94B5
:1003B000E2F7242B352B30938E0220938D029091FF
:1003C000CA0191110DC0682F69830E945509AC01C3
:1003D000698188E992E00F90DF91CF910C94F40B42
:1003E0000F90DF91CF910895DB019091CB019C306C
:1003F000A0F53091CC01682F70E0332369F0E32F32
:10040000F0E0E453FE4F8081FB01E752FE4F808312
:1004100031503093CC0107C0FB01E752FE4F90836F
:100420009F5F9093CB01FB01E752FE4F808190E0EC
:100430009C01220F331F820F931F1A161B064CF4C8
:100440001416150634F49A01AD0183519E4F0C9495
:100450004F0F83519E4F0C94D10F6AE071E088E9F1
:1004600092E00C947B0CCF93DF93C82FD0E0C7525F
:10047000DE4F888190E09C01220F331F820F931F73
:1004800083519E4F0E94D70F88819091CB01891391
:1004900006C0882379F081508093CB010BC099234B
:1004A00049F0E091CC01EF5FE093CC01F0E0E45340
:1004B000FE4F80838FEF8883DF91CF910895109254
:1004C00013028FEF809306010895FF920F931F93FD
:1004D000CF93DF93C82F8B01682F88E992E00E94A9
:1004E000C70C8F3709F40FC16C2F88E992E00E9486
:1004F000C70C863041F480911302882321F0063026
:10050000110509F0EDC0DEEFDC0FD231B0F404309C
:10051000110599F0EC2FF0E0E752FE4F80818C300E
:1005200060F490E09C01220F331F820F931F8351D0
:100530009E4F0E9476108111D6C052EFF52EFC0E10
:1005400085E08F1550F061E070E00230110511F088
:1005500060E070E08F2D0E94B401D23118F5AC2F0D
:10056000A695A695A6954C2F4770B0E0AC57BD4F09
:100570000115110519F00B30110551F481E090E0DF
:1005800001C0880F4A95EAF79C91892B8C930AC089
:1005900021E030E001C0220F4A95EAF720958C91C6
:1005A00028232C9340E050E06C2F88E992E00E94D1
:1005B000E20C0C30110508F088C0F801EC5CFF4F2C
:1005C0000C945B1685E08F1508F49DC0D23120F4A1
:1005D00060E08C2F0E94FA0942E008C0D23108F096
:1005E00092C060E08C2F0E94FA0940E06C2F88E9ED
:1005F00092E0DF91CF911F910F91FF900C94CE0C60
:10060000D23108F080C062E08C2F0E94FA094BE0E2
:100610006C2F88E992E00E94CE0C41E050E06C2FF4
:1006200088E992E0DF91CF911F910F91FF900C9498
:10063000E20CD23108F067C06C2F88E992E00E948A
:10064000C70C833021F460E08C2F0E94360A61E0F1
:100650008C2F0E94FA0941E0C9CFC33049F08BEFDB
:100660008C0F823028F087EF8C0F833008F04BC05E
:1006700061E08C2F0E94FA0960E070E08C2F0E94EC
:10068000720943E0B3CFD231F0F544E06C2F88E932
:1006900092E00E94CE0CEC2FF0E0E752FE4F8081FA
:1006A0008F3F29F190E09C01220F331F820F931F8F
:1006B00083519E4F0E947610811125C018C08EEE86
:1006C0008C0F823000F546E091CF6EE171E088E951
:1006D00092E0DF91CF911F910F91FF900C947B0CD2
:1006E0000E945F0210CF8C2F0E94330226CF4FEF63
:1006F0005FEF6FEF7FEF8C2FDF91CF911F910F9105
:10070000FF900C94F401DF91CF911F910F91FF9016
:100710000895CF93C0E08EEE8C0F823028F466E00F
:1007200070E08C2F0E946502CF5FC431A1F781E099
:100730008093130288E593E0CF910C9421110F93DD
:100740001F93CF93DF9381E08093CA0180911302BE
:1007500081110E945F0210928A021092840210920C
:10076000870210928B0210928502109288021092DA
:100770008C02109286021092890209ED11E0C0E00D
:10078000DFEF82EF8C0F863018F462E070E006C075
:100790008EEF8C0F823128F461E070E08C2F0E9484
:1007A0006502F801D1938F01CF5FC43151F71092E8
:1007B0008E0210928D021092CC011092CB011092F9
:1007C000CA01DF91CF911F910F9108951F93CF938D
:1007D000DF93C82FD0E0FE01EC57FD4F9081162F1C
:1007E0001923C957DD4F411103C09881911741F07A
:1007F000682F412F50E088E992E00E940D0C188389
:10080000DF91CF911F910895833020F5282F30E09C
:10081000F901E657FD4F6083672BE1F0F901EC57D2
:10082000FD4F9081811103C069B16C7F0FC0813091
:1008300049F463B136B140E4349F900111246F73E1
:10084000622B04C066B16C7366956695692341E0BE
:100850000C94E603089580918A02882349F069B1D7
:100860008091840268236C7F40E080E00E94E60370
:1008700080918B02882379F063B196B120E4929F36
:10088000C00111246F73862B60918502682340E0BC
:1008900081E00E94E60380918C02882359F066B1C2
:1008A0006C736695669580918602682340E082E0CD
:1008B0000C94E603089525E042E06FE271E088E9D8
:1008C00092E00E940B0B43ED50E060EE88E992E06D
:1008D0000E94910C43E151E060E988E992E00E94B6
:1008E000910C44EB51E060EC88E992E00E94910C9D
:1008F00044E054E060ED88E992E00E94910C45E606
:1009000052E064EF88E992E00E94910C48EA50E0DE
:1009100065EF88E992E00E94910C42E355E060EFB8
:1009200088E992E00E94C10C4FE953E06FEF88E93B
:1009300092E00E94B90C40E051EE60E070E088E97E
:1009400092E00E94570E0C949F03CF93DF93CDEE5D
:10095000D1E0CE010E94330F239682E0C131D80747
:10096000C1F7DF91CF910895682F88E593E00C944B
:10097000E21088E593E00E948E100895CF92DF92F6
:10098000EF92FF920F931F93CF93DF931F92CDB7F8
:10099000DEB7D82E8B01C42E6F3F7F4FC1F06D2D77
:1009A00088E593E029830E942B11802F0E94B404D4
:1009B0002981622F88E593E00E9435118091110210
:1009C00090911202009729F00E940F0902C000E0E6
:1009D00010E04C2D6D2D88E593E00E94AC11EC2CBD
:1009E000F12C88E593E00E948610E816F9061CF4C5
:1009F0006FE371E009C088E593E00E9486108E15D0
:100A00009F0534F46CE571E088E992E00E947B0C6C
:100A1000D09214020093150200E010E00E151F059D
:100A200094F042E04C0D24E132E067E788E992E07F
:100A30000F90DF91CF911F910F91FF90EF90DF907A
:100A4000CF900C943E0C88E593E00E948610892B91
:100A500041F30E94B904F801EC5EFD4F82830F5F01
:100A60001F4FDCCFEF92FF920F931F93CF93DF9333
:100A700090E0FC01E956F109E231F10508F067C2A6
:100A8000EA01162FE05CFF4F0C945B162981922F30
:100A9000987125FF03C068E771E05CC0888126FB80
:100AA000222720F931E02327983071F148F4911181
:100AB0004EC2682F88E593E00E942B1102E007C028
:100AC000903109F441C0983109F473C040C2011754
:100AD00068F4FE01E00FF11D9181808120E8929F72
:100AE000801911240E94B4040E5FF1CF88E593E0D1
:100AF0000E94AF1186E490E0DF91CF911F910F919A
:100B0000FF90EF900C940F094A816B81163071F4BD
:100B100030E8639FF0011124BF01640F711D9D81B6
:100B20004C8130E8939F4019112406C090E8699FDA
:100B3000401911246FEF7FEFDF91CF911F910F913B
:100B4000FF90EF900C94BE04E0910601E73064F052
:100B500068E971E088E992E0DF91CF911F910F91F0
:100B6000FF90EF900C947B0C9A814B8130E86630BB
:100B700061F4439FA0011124490F511D3D819C81C7
:100B800060E8369F9019112405C0439F90191124E5
:100B90004FEF5FEFEF5FE093060165E0E602F001E3
:100BA0001124EC5AFD4F8083528341839383248325
:100BB000CEC120910601121624F08FEF809306011A
:100BC000C6C190E0622F022E000C770B35E0492F52
:100BD00050E06417750774F0349FF001359FF00DF5
:100BE0001124EC5AFD4F4081481302C085E026C015
:100BF0009F5FEDCF90E0FACF9830F8F4FA0131968C
:100C00008E9FD0018F9FB00D1124AC5ABD4F3C91E7
:100C1000849FF001859FF00D1124EC5AFD4F308325
:100C200011964D915C9112975283418313963C919A
:100C30001397338314963C9134839F5F492F50E080
:100C400064177507CCF621502093060180C12881D6
:100C5000898130E8839FC0011124820F911D009784
:100C600021F090931202809311028091130281115E
:100C70006EC1DF91CF911F910F91FF90EF900C9477
:100C80008903653008F463C11881F9800A81EB801B
:100C9000CC818EEF810F823108F059C1E12FF0E055
:100CA000E752FE4F20812C3060F430E0C901880FFC
:100CB000991F820F931F83519E4F0E9476108111BE
:100CC00042C160E8C69FA00111244E0D511D80E86D
:100CD000089FB00111246F0D711D812F0E94F40136
:100CE00064E070E0812FDF91CF911F910F91FF9011
:100CF000EF900C946502623008F429C12881898143
:100D000030E8839FC0011124820F911D009711F4D8
:100D100081E090E0909308018093070118C1623050
:100D200008F415C1698170E0123091F08A8120E8E1
:100D3000829FC0011124682B792B133049F08B81DD
:100D400090E090E4899F902D88271124682B792BBF
:100D50008881DF91CF911F910F91FF90EF900C94BC
:100D6000D30060EF88E992E00E94870C6CE688E986
:100D700092E00E94870CCEEF84EF8C0F863058F4FF
:100D800062E088E992E00E94870C6AE088E992E0DC
:100D90000E94870C0DC0C13059F463E088E992E0ED
:100DA0000E94870C68E088E992E00E94870C08C0E6
:100DB0008DEF8C0F823088F389EF8C0F833068F3CE
:100DC000C23150F464E088E992E00E94870C6EE042
:100DD00088E992E00E94870C80EF8C0F823050F4FB
:100DE00066E088E992E00E94870C61E088E992E081
:100DF0000E94870C6FE788E992E00E94870CCF5F22
:100E0000C231B9F1C23108F0B7CF60E088E992E0B1
:100E10000E94870C61E088E992E00E94870C6BE0F9
:100E200088E992E00E94870C61E088E992E00E94E4
:100E3000870C61E088E992E00E94870C61E088E914
:100E400092E00E94870C98CF662309F480C0C88185
:100E500060EF88E992E00E94870C6EE688E992E0F4
:100E60000E94870C6C2F88E992E00E94870CC431A5
:100E700058F067EF88E992E0DF91CF911F910F91D1
:100E8000FF90EF900C94870C6C2F88E992E00E9401
:100E9000C70C682F88E992E00E94870C6C2F88E9C4
:100EA00092E00E94D80C682F6F7788E992E00E9448
:100EB000870C6C2F88E992E00E94D80C8078892BEF
:100EC00079F06C2F88E992E00E94D80C880F892F66
:100ED000881F990B682F6F7788E992E00E94870C32
:100EE0006C2F88E992E00E94D80C8827907C892B8F
:100EF00009F4BFCF6C2F88E992E00E94D80C990FBB
:100F0000880B990F982F881F682F6F7788E992E0D8
:100F10000E94870CAECF60EF88E992E00E94870CB8
:100F20006AE688E992E00E94870CC2EFC63010F4AE
:100F30006C2F01C06FE788E992E00E94870CCF5FB9
:100F4000C630A1F796CF812F0E943302BACEDF912F
:100F5000CF911F910F91FF90EF9008958F929F92E4
:100F6000AF92BF92CF92DF92EF92FF920F931F93B7
:100F7000CF930E942B0488E992E00E94680B892B92
:100F800029F088E992E00E94C90DF5CF0E94A208DD
:100F90006093800270938102809382029093830217
:100FA000C0907C02D0907D02E0907E02F0907F02A3
:100FB00040910701509108014A01A12CB12C8B01ED
:100FC0009C010C191D092E093F0980169106A206E5
:100FD000B30608F051C0D501C4018C0D9D1DAE1D96
:100FE000BF1D80937C0290937D02A0937E02B093FC
:100FF0007F02C2EF6EE06C0FC630D8F488E992E051
:101000000E94C70C8230A9F480918D0290918E02CB
:101010000C2E02C0959587950A94E2F780FF09C0CF
:101020008C2F0E945509AC016C2F88E992E00E9438
:10103000F40BCF5FC630F1F68091060187FD1CC02E
:10104000C0E015E02C2F30E080910601082E000C46
:10105000990B8217930784F0129FF001139FF00DF4
:101060001124EC5AFD4F618172812481438180817A
:101070000E94BE04CF5FE6CFCF911F910F91FF90EA
:10108000EF90DF90CF90BF90AF909F908F9008959A
:1010900008950E941A090E9448080E945B04C4EE49
:1010A000D1E10E94AE072097E1F30E94E411F9CF4D
:1010B0001F920F920FB60F9211242F933F938F938D
:1010C0009F93AF93BF938091900290919102A091D2
:1010D0009202B091930230918F0223E0230F2D37BB
:1010E00020F40196A11DB11D05C026E8230F02962C
:1010F000A11DB11D20938F028093900290939102C5
:10110000A0939202B09393028091940290919502E1
:10111000A0919602B09197020196A11DB11D8093F6
:10112000940290939502A0939602B0939702BF9178
:10113000AF919F918F913F912F910F900FBE0F9084
:101140001F9018952FB7F8946091900270919102BA
:1011500080919202909193022FBF08953FB7F89427
:101160008091940290919502A0919602B09197027D
:1011700026B5A89B05C02F3F19F00196A11DB11DF2
:101180003FBFBA2FA92F982F8827820F911DA11D2D
:10119000B11DBC01CD0142E0660F771F881F991F6A
:1011A0004A95D1F708958F929F92AF92BF92CF92B6
:1011B000DF92EF92FF926B017C010E94AE084B011F
:1011C0005C01C114D104E104F10401F10E94701327
:1011D0000E94AE08DC01CB0188199909AA09BB0954
:1011E000883E9340A105B10560F321E0C21AD10801
:1011F000E108F10888EE880E83E0981EA11CB11C5E
:10120000C114D104E104F10419F7DBCFFF90EF9092
:10121000DF90CF90BF90AF909F908F9008958230D5
:10122000910538F0880F991F880F991F059701972E
:10123000F1F70895789484B5826084BD84B58160A7
:1012400084BD85B5826085BD85B5816085BDEEE6CE
:10125000F0E0808181608083E1E8F0E010828081AD
:1012600082608083808181608083E0E8F0E080811B
:1012700081608083E1EBF0E0808184608083E0EB3B
:10128000F0E0808181608083EAE7F0E08081846023
:10129000808380818260808380818160808380817F
:1012A000806880831092C10008958E3008F08E50BF
:1012B00087702091090190E4299F90011124822BCD
:1012C00080937C0080917A00806480937A00809182
:1012D0007A0086FDFCCF809178002091790090E023
:1012E000922B08951F93CF93DF93182FEB0161E0AA
:1012F0000E94FA09209711F460E004C0CF3FD105A5
:1013000039F461E0812FDF91CF911F910C94360A5F
:10131000E12FF0E0EC55FF4FE491E330F9F048F4B1
:10132000E130B9F0E230A1F584B5806284BDC8BD7A
:1013300034C0E730E9F0E83019F1E43049F5809144
:101340008000806280938000D0938B00C0938A00DD
:1013500024C084B5806884BDC7BD1FC08091800053
:10136000806880938000D0938900C093880015C066
:101370008091B00080688093B000C093B3000DC02E
:101380008091B00080628093B000C093B40005C02B
:10139000C038D1050CF0B5CFAFCFDF91CF911F9101
:1013A0000895833081F028F4813099F08230A1F0E3
:1013B00008958730A9F08830B9F08430D1F4809155
:1013C00080008F7D03C0809180008F7780938000A4
:1013D000089584B58F7702C084B58F7D84BD08954C
:1013E0008091B0008F7703C08091B0008F7D809393
:1013F000B0000895CF93DF9390E0FC01E854FF4FD5
:101400002491FC01E453FF4F8491882361F190E023
:10141000880F991FFC01E651FF4FC591D491FC0143
:10142000E052FF4FA591B491611109C09FB7F894A4
:101430008881209582238883EC912E230BC0623013
:1014400061F49FB7F8943881822F80958323888335
:10145000EC912E2B2C939FBF06C08FB7F894E88198
:101460002E2B28838FBFDF91CF9108951F93CF93A9
:10147000DF93282F30E0F901EC55FF4F8491F901FB
:10148000E854FF4FD491F901E453FF4FC491CC23AA
:10149000C9F0162F81110E94D109EC2FF0E0EE0F58
:1014A000FF1FE052FF4FA591B4918FB7F89411112F
:1014B00005C09C91ED2FE095E92302C0EC91ED2B46
:1014C000EC938FBFDF91CF911F9108950F931F93DE
:1014D000CF93DF938C01EB01DC018D919C91DC01BA
:1014E000ED91FC916F770190F081E02D0995F80165
:1014F00080819181DC01ED91FC91CC0FCD2FCC1F2F
:10150000DD0B6C2F6F770190F081E02DDF91CF9193
:101510001F910F910994DC018D919C91DC01ED915B
:10152000FC910190F081E02D60EF0994DC018D9138
:101530009C91DC01ED91FC910190F081E02D67EF31
:101540000994CF93DF93EC0188819981DC01ED91BF
:10155000FC910190F081E02D69EF099588819981D6
:10156000DC01ED91FC910190F081E02D62E00995A4
:1015700088819981DC01ED91FC910190F081E02D51
:1015800065E0DF91CF9109941F93CF93DF93DC0146
:1015900012962C912223D9F1EC010E948B0A8881AA
:1015A0009981DC01ED91FC910190F081E02D69E7DA
:1015B000099588819981DC01ED91FC91AB81BC8119
:1015C0000190F081E02D6C91099588819981DC0171
:1015D000ED91FC91AB81BC810190F081E02D1196E1
:1015E0006C91099512E08A81181758F4EB81FC81FF
:1015F000E10FF11D608170E0CE010E94660A1F5F5D
:10160000F2CFCE01DF91CF911F910C94960ADF911A
:10161000CF911F910895CF92DF92EF92FF920F9397
:101620001F93CF93DF937C01EB01C42ED22E6AE38C
:1016300071E0CE010E94C2178C016FE270E0CE0112
:101640000E94B717009739F46CE570E0CE010E9454
:10165000B717009711F0EC0121960115110551F40F
:10166000FE0101900020E9F7EC1BEF5FD701129615
:10167000EC9305C00C1B1D0B0E5FF7010283D70115
:1016800013968D919C9114970E941017F701028177
:1016900010E0C80101960E947B16D70114969C9316
:1016A0008E931397FC01E00FF11F1082FC01C082A2
:1016B000D182A80142505109BE010296DF91CF911B
:1016C0001F910F91FF90EF90DF90CF900C94A8178F
:1016D000DC018D919C91DC01ED91FC910480F58100
:1016E000E02D0994CF92DF92EF92FF920F931F9318
:1016F000CF93DF93DC0118968C911897813771F0A6
:10170000893709F050C0CD01DF91CF911F910F9122
:10171000FF90EF90DF90CF900C94C40AFD01EB5640
:10172000FF4FC080D180C114D10409F454C0ED0131
:10173000C75BDF4F28813981C901019797FDC90136
:10174000AC0155954795F42EBD01675F7F4FED01C4
:1017500028968D01065F1F4F30E0CE013F1580F4C3
:10176000FB0120812883F801E080F0E8EF9E20193A
:10177000112429933F5F6E5F7F4F0E5F1F4FEECFA7
:10178000A40FB11D17962C911797222311F01896CC
:101790001C92F601DF91CF911F910F91FF90EF9076
:1017A000DF90CF900994FD01E956FF4F0190F08141
:1017B000E02D309781F0AD01475F5F4FA75BBF4FD2
:1017C0006C916150DF91CF911F910F91FF90EF903D
:1017D000DF90CF900994DF91CF911F910F91FF90EF
:1017E000EF90DF90CF9008950F931F93CF93DF93E7
:1017F000EC018A0188819981DC01ED91FC916F7087
:10180000606E0190F081E02D0995B801CE01DF9165
:10181000CF911F910F910C94660A0F931F93CF9352
:10182000DF938C01EA01DC018D919C91DC01ED914B
:10183000FC916F7060690190F081E02D0995F801CD
:1018400080819181DC01ED91FC916C2F6F7701908B
:10185000F081E02D0995F80180819181DC01ED9105
:10186000FC91BE01660F672F661F770B0190F08118
:10187000E02DDF91CF911F910F910994CF92DF92CC
:10188000EF92FF920F931F93CF93DF9300D01F929D
:10189000CDB7DEB78C01F42E2A833B8369830E9487
:1018A0008B0AD8018D919C91DC01ED91FC91019006
:1018B000F081E02D698109952A81E22EC22E3B81BB
:1018C000D32E8C2D8E198F1540F4F60161916F0186
:1018D00070E0C8010E94660AF4CFC8010F900F9013
:1018E0000F90DF91CF911F910F91FF90EF90DF90BC
:1018F000CF900C94960A9B01FB0101900020E9F720
:101900003197AF01461B570B61E70C943E0CDC018D
:101910008D919C91DC01ED91FC910190F081E02D85
:101920000994603DC1F028F4603969F0603C79F0B9
:101930000895643FA1F0653FB1F0603EC9F4FC0139
:10194000E957FF4F13C0FC01E757FF4F0FC0FC01E1
:10195000E557FF4F0BC0FC01E357FF4F07C0FC01E9
:10196000E157FF4F03C0FC01EF56FF4F5183408307
:1019700008956F3F29F4FC01ED56FF4F51834083DA
:101980000895FC01E956FF4F518340830895860F67
:10199000911DFC01E55BFF4F80810895860F911D2D
:1019A000FC01E55BFF4F80818F3709F0408308958C
:1019B000860F911D860F911DFC01E15AFF4F80811A
:1019C00091810895860F911D860F911DFC01E15AAA
:1019D000FF4F518340830895FC01158216821782C0
:1019E000DC011896885B9F4F1D92A817B907E1F795
:1019F0001C92DF01A75BBF4F1D921C92ED56FF4F5B
:101A00000190F081E02D309709F009940895FC01D0
:101A1000128214821382E756FF4F10820C94EC0C52
:101A2000CF93DF93EC01FC01E85BFF4F80818823BB
:101A3000A9F0673F31F41082CE01DF91CF910C9471
:101A4000720BFE01E75BFF4F20813181C20FD31F74
:101A500068872F5F3F4F3183208398C08D81882313
:101A600009F452C067FD50C081508D83FE01E80F1C
:101A7000F11D608781118AC08E81882309F486C098
:101A8000803DA1F140F4803981F0803CD9F5FE0120
:101A9000E557FF4F2EC0843FC9F0853FD9F0803E07
:101AA00089F5FE01E957FF4F03C0FE01E757FF4FDD
:101AB0000190F081E02D309729F18885698570E0EB
:101AC00090E8899F600D711D11241AC0FE01E15735
:101AD000FF4F03C0FE01EF56FF4F0190F081E02D54
:101AE000309781F0688570E089850BC0FE01E3576F
:101AF000FF4F0190F081E02D309721F0688570E074
:101B00008F8109951E8242C0862F603F28F4807F16
:101B100090E06F706F8301C090E0803F910549F1C4
:101B20007CF4803C910509F124F480399105D9F0C9
:101B30002DC0803D9105C9F0803E9105A1F026C0E1
:101B4000893F9105E9F03CF49C01245F3109223082
:101B5000310548F01BC08F3F9105C1F4CE01DF91E4
:101B6000CF910C94EC0C92E001C091E09D838E83A8
:101B70000DC081E08083C75BDF4F1982188206C0E9
:101B800088E992E0DF91CF910C94A10ADF91CF9187
:101B90000895CF93DF93EC0188819981DC01ED9169
:101BA000FC910680F781E02D09958F3FBFEF9B07E1
:101BB00031F0682FCE01DF91CF910C94100DDF91A1
:101BC000CF9108954F925F926F927F92AF92BF92A2
:101BD000CF92DF92EF92FF920F931F93CF93DF93F9
:101BE000D62F5A01C0E06801110FEE08FF08290145
:101BF000330F660877088C2F90E08A159B0594F4C4
:101C0000C701B6010E94D30861E08D2F0E94360AF9
:101C1000C301B2010E94D30860E08D2F0E94360AF2
:101C2000CF5FE9CFDF91CF911F910F91FF90EF90A0
:101C3000DF90CF90BF90AF907F906F905F904F906C
:101C400008950F931F93CF93DF93FC01E756FF4F47
:101C50002081211127C0EC0161E08DE00E94FA098A
:101C600002ED10E028E230E042E050E06DE0CE010D
:101C70000E94E20D6AEF70E080E090E00E94D308DD
:101C800028E230E045E050E06DE0CE010E94E20D38
:101C90006DE770E080E090E0DF91CF911F910F91B0
:101CA0000C94D308DF91CF911F910F910895CF939A
:101CB000DF93EC0126E08AEA93E00E947C128AEA34
:101CC00093E099838883CE010E94210ECE010E9469
:101CD000A10ACE01DF91CF910C94C40A88E992E069
:101CE0000C94070D1F920F920FB60F9211242F9391
:101CF0003F934F935F936F937F938F939F93AF9394
:101D0000BF93EF93FF938091330387FF05C0109239
:101D10008500109284001BC020913303022E000C1A
:101D2000330B8091320390E02817390784F48091B7
:101D30003303082E000C990BFC01EE0FFF1F8E0FD2
:101D40009F1FFC01EC5CFC4F808186FD15C08091DB
:101D500033038F5F8093330320913303022E000CF3
:101D6000330B8091320390E028173907C4F4809137
:101D700033038C3064F113C080913303082E000CC0
:101D8000990BFC01EE0FFF1F8E0F9F1FFC01EC5CF7
:101D9000FC4F808160E08F730E94360AD8CF80911B
:101DA000840090918500049680349C4918F480E466
:101DB0009CE905C0809184009091850004969093E1
:101DC0008900809388008FEF809333033BC020917C
:101DD00084003091850080913303082E000C990B0C
:101DE000FC01EE0FFF1F8E0F9F1FFC01EC5CFC4FF0
:101DF00081819281820F931F909389008093880044
:101E000080913303082E000C990BFC01EE0FFF1F8D
:101E10008E0F9F1FFC01EC5CFC4F808186FF12C07F
:101E200080913303082E000C990BFC01EE0FFF1F6D
:101E30008E0F9F1FFC01EC5CFC4F808161E08F7373
:101E40000E94360AFF91EF91BF91AF919F918F91C0
:101E50007F916F915F914F913F912F910F900FBEA6
:101E60000F901F901895FC01909132039C30A0F4C4
:101E700081E0890F809332039083892F90E0FC01E9
:101E8000EE0FFF1F8E0F9F1FFC01EC5CFC4F88EBD9
:101E90009BE09283818308958FEF80830895DF9282
:101EA000EF92FF920F931F93CF93DF93EC01D62E07
:101EB0007A01890188818C3008F06AC061E08D2D3B
:101EC0000E94FA098881E82FF0E09F01220F331F5A
:101ED000E20FF31FEC5CFC4F9D2D9F732081207C53
:101EE000D22ED92AD08260E272E0AB014E195F098E
:101EF00057FF02C04D5F5F4F5595479555954795E4
:101F0000498340E659E09A01201B310B37FF02C09C
:101F10002D5F3F4F35952795359527952A832CE0E2
:101F2000622F0E940E16289FB001112440E050E05D
:101F30009A01260F371FF901EE0FFF1F2E0F3F1FCB
:101F4000F901EC5CFC4F908196FD16C04F5F5F4F2E
:101F50004C30510569F781110FC01092800082E06A
:101F6000809381001092850010928400B19A809134
:101F70006F00826080936F00E881F0E0CF01880FEE
:101F8000991FE80FF91FEC5CFC4F8081806480830F
:101F90008881DF91CF911F910F91FF90EF90DF909B
:101FA000089520E639E040E252E00C944F0FDC0146
:101FB000EC91F0E0CF01880F991FE80FF91FEC5C5E
:101FC000FC4F80818F7B80830895FC0190819C3041
:101FD00080F5818128E830E0281B310987FD3395A1
:101FE000220F331F220F331F621773077CF0828189
:101FF00028E532E0281B310987FD3395220F331F76
:10200000220F331F621773070CF49B012250310912
:10201000220F331F4FB7F894892F90E0FC01EE0F89
:10202000FF1F8E0F9F1FFC01EC5CFC4F328321834E
:102030004FBF0895AF92BF92CF92DF92EF92FF927F
:102040000F931F93CF93DF93EC01603282E0780708
:102050000CF03FC077FD06C0653B71052CF064EBCA
:1020600070E002C060E070E0898128E830E059014A
:10207000A81AB10887FDB394AA0CBB1CAA0CBB1C00
:102080000B2C000CCC08DD08072E000C880B990BDC
:102090002A8108E512E0021B110927FD1395000FA4
:1020A000111F000F111F012E000C220B330B3F9349
:1020B0002F931F930F9314EBE12EF12C00E010E00F
:1020C00020E030E0A9010E949C130F900F900F9028
:1020D0000F90CE01DF91CF911F910F91FF90EF9064
:1020E000DF90CF90BF90AF900C94E50FFC01808102
:1020F00090E0FC01EE0FFF1F8E0F9F1FFC01EC5CB8
:10210000FC4F808186FB882780F9089580918803A1
:1021100090E020918903821B910908959091890391
:1021200080918803981750F4E92FF0E0E657FC4FB0
:10213000208130E09F5F9093890302C02FEF3FEF33
:10214000C9010895E091890380918803E81730F46C
:10215000F0E0E657FC4F808190E008958FEF9FEF0D
:1021600008950895CF92DF92EF92FF920F931F93FD
:10217000CF93DF937C01262F972F8A0180916403F0
:10218000882391F0C62FD72F6E01C40ED51ECC1513
:10219000DD0571F06991D701ED91FC910190F0811D
:1021A000E02DC7010995F3CF642F822F0E94991467
:1021B000C801DF91CF911F910F91FF90EF90DF90B9
:1021C000CF900895CF93DF931F92CDB7DEB7698389
:1021D000209164032223D1F020916503203240F046
:1021E00021E030E0FC013383228380E090E015C0E1
:1021F00080916603E82FF0E0E959FC4F99819083C4
:102200008F5F809366038093650305C061E0CE0114
:1022100001960E94991481E090E00F90DF91CF9198
:102220000895FC011382128288EE93E0A0E0B0E0F2
:1022300084839583A683B7838DEA91E0918380831D
:1022400008951092890310928803109266031092E9
:1022500065030C94DD1381E080936403609387032E
:10226000109266031092650308950F93062F21E0E4
:102270004091650367E673E0809187030E944314F1
:102280001092660310926503109264030F910895F3
:102290004F925F926F927F92AF92BF92CF92EF92E6
:1022A000FF920F931F93CF93DF935C01F62ED42FF1
:1022B00028013901EE2021F10E942B11CE2DC430CE
:1022C00008F0C3E0C150C0F0D501ED91FC91B8E039
:1022D000CB9FC0011124A301920104C056954795DC
:1022E000379527958A95D2F7CA01B9010190F081F7
:1022F000E02DC5010995E6CF60E0C5010E943511CA
:102300004D2FD13208F040E22C2D6AE873E08F2D7A
:102310000E94FB131092890380938803DF91CF9171
:102320001F910F91FF90EF90CF90BF90AF907F9053
:102330006F905F904F900895CF92EF920F931F93FD
:10234000C22EE12C00E010E098010E9448111F917C
:102350000F91EF90CF90089521E00C949C1161E0D3
:102360000C94351188E593E00C941111FC01918DCA
:10237000228D892F90E0805C9F4F821B91098F7383
:1023800099270895FC01918D828D981731F0828DE7
:10239000E80FF11D858D90E008958FEF9FEF089570
:1023A000FC01918D828D981761F0828DDF01A80F5D
:1023B000B11D5D968C91928D9F5F9F73928F90E07F
:1023C00008958FEF9FEF089589E393E1892B49F0FA
:1023D00080E090E0892B29F00E94391381110C9440
:1023E00000000895FC01848DDF01A80FB11DA35AE0
:1023F000BF4F2C91848D90E001968F739927848F25
:10240000A689B7892C93A089B1898C9180648C931B
:10241000938D848D981306C00288F389E02D808106
:102420008F7D80830895CF93DF93EC01888D88237F
:10243000C9F0EA89FB89808185FD05C0A889B98931
:102440008C9186FD0FC00FB607FCF5CF808185FF0C
:10245000F2CFA889B9898C9185FFEDCFCE010E947A
:10246000F211E7CFDF91CF910895EF92FF920F9392
:102470001F93CF93DF93EC0181E0888F9B8D8C8D30
:10248000981305C0E889F989808185FD24C0F62E5E
:102490000B8D10E00F5F1F4F0F731127E02E8C8DF7
:1024A000E8120CC00FB607FCFACFE889F9898081E1
:1024B00085FFF5CFCE010E94F211F1CF8B8DFE0189
:1024C000E80FF11DE35AFF4FF0820B8FEA89FB8979
:1024D0008081806207C0EE89FF896083E889F9897D
:1024E00080818064808381E090E0DF91CF911F91B3
:1024F0000F91FF90EF900895CF92DF92EF92FF92AD
:102500001F93CF93DF93EC016A017B01122FE889BF
:10251000F98982E080834115514E61057105B1F062
:1025200060E079E08DE390E0A70196010E941A1621
:10253000DA01C9010197A109B109B695A795979547
:102540008795AC01411580E15807A8F0E889F98921
:10255000108260E874E88EE190E0A70196010E9485
:102560001A16BA01A90141505109610971097695FC
:10257000679557954795EC85FD855083EE85FF85DA
:102580004083188EEC89FD891083EA89FB8980815C
:1025900080618083EA89FB89808188608083EA8901
:1025A000FB89808180688083EA89FB8980818F7DB7
:1025B0008083DF91CF911F91FF90EF90DF90CF90BC
:1025C00008951F920F920FB60F9211242F938F939D
:1025D0009F93EF93FF93E091BA03F091BB03808147
:1025E000E091C003F091C10382FD12C090818091FF
:1025F000C3038F5F8F732091C403821751F0E09162
:10260000C303F0E0E655FC4F958F8093C30301C0F0
:102610008081FF91EF919F918F912F910F900FBE2D
:102620000F901F9018951F920F920FB60F921124C2
:102630002F933F934F935F936F937F938F939F93CA
:10264000AF93BF93EF93FF938AEA93E00E94F21156
:10265000FF91EF91BF91AF919F918F917F916F917A
:102660005F914F913F912F910F900FBE0F901F9050
:1026700018958AEA93E00E94B61121E0892B09F4AB
:1026800020E0822F0895EAEAF3E01382128288EEB6
:1026900093E0A0E0B0E084839583A683B7838DEBBD
:1026A00091E09183808385EC90E09587848784EC2A
:1026B00090E09787868780EC90E0918B808B81EC0F
:1026C00090E0938B828B82EC90E0958B848B86ECF0
:1026D00090E0978B868B118E128E138E148E089538
:1026E0000895CF92DF92EF92FF920F931F93CF93B3
:1026F000DF936C017A018B01C0E0D0E0CE15DF05DD
:1027000089F0D8016D918D01D601ED91FC91019078
:10271000F081E02DC6010995892B11F47E0102C0DC
:102720002196ECCFC701DF91CF911F910F91FF90C0
:10273000EF90DF90CF9008954F925F926F927F92CB
:10274000AF92BF92CF92DF92EF92FF920F931F93BF
:10275000CF93DF93CDB7DEB729013A019B01AC01DE
:10276000241935094609570989899A89AB89BC8991
:10277000BC01CD016A197B098C099D090E94FE15D7
:10278000A801970124193509460957090E943C16EA
:10279000CA01B9016A0D7B1D8C1D9D1DDF91CF9172
:1027A0001F910F91FF90EF90DF90CF90BF90AF906F
:1027B0007F906F905F904F9008951092B40481E0E5
:1027C0008093B2041092B10461E082E10E94360A63
:1027D00061E083E10E94360AE9EBF0E080818E7FC0
:1027E000808380818D7F808388E48093B80085E436
:1027F0008093BC000895413208F043C09091B40426
:102800009111FCCF91E09093B4042093B2042FEF88
:102810002093470410928C04240F20938B049093F0
:10282000B3049091B304880F892B8093B3048091F3
:10283000B104813061F41092B1048091B3048093AB
:10284000BB008091BC0083FDF8CF85EC01C085EE14
:102850008093BC008091B4048130E1F380918C04BA
:10286000841710F440918C042DE834E0FB01D90169
:102870008A2F821B841718F48D918193F9CF842FAE
:10288000089580E008950F93413208F04AC0909176
:10289000B4049111FCCF32E03093B4040093B2043D
:1028A0003FEF3093470410928C0440938B04FB015C
:1028B0006DE874E0DB013A2F361B341718F43191C0
:1028C0003D93F9CF1092B3043091B304880F832B5A
:1028D0008093B3048091B104813061F41092B1040B
:1028E0008091B3048093BB008091BC0083FDF8CF3E
:1028F00085EC01C085EE8093BC00222321F08091FD
:10290000B4048230D1F3809147048F3F79F08091F5
:102910004704803241F080914704803331F094E0E5
:1029200005C091E003C092E001C093E0892F0F91B0
:10293000089540916904262F30E0240F311D213283
:102940003105DCF42091B4042430C9F4FC0180E0AA
:1029500090E0861758F4309169042191DC01A55963
:10296000BB4FA30FB11D2C930196F3CF8091690447
:10297000680F6093690480E0089581E0089582E023
:10298000089585ED8093BC008091BC0084FDFCCF50
:102990001092B404089585EC8093BC001092B404A6
:1029A00008951F920F920FB60F9211242F933F9309
:1029B0004F935F936F937F938F939F93AF93BF9347
:1029C000EF93FF938091B900887F803609F49EC011
:1029D00078F5883209F45DC090F4803109F456C06E
:1029E00038F4882309F4F5C0883009F44FC0F5C0E5
:1029F000883109F44EC0803209F45FC0EEC08034E3
:102A000009F46AC058F4803309F457C0883309F0D8
:102A1000E4C0809347040E94CB14DFC0803509F4E2
:102A20004FC0883509F45DC0883409F0D6C0D3C0E2
:102A3000883909F4C4C0A8F4883709F467C038F4A9
:102A4000883609F463C0803709F460C0C6C088388E
:102A500009F4B5C0803909F45FC0803809F0BDC001
:102A60005BC0803B09F483C038F4803A09F466C047
:102A7000883A09F47CC0B1C0803C09F4A4C0883C09
:102A800009F4A1C0883B09F487C0A7C08091B304B2
:102A900010C090918C0480918B04981770F5E09190
:102AA0008C0481E08E0F80938C04F0E0E357FB4FA1
:102AB00080818093BB0085EC83C0809347048BC0EA
:102AC000E0918C0481E08E0F80938C048091BB0098
:102AD000F0E0E357FB4F808390918C0480918B044E
:102AE0006BC0E0918C0481E08E0F80938C04809108
:102AF000BB00F0E0E357FB4F80838091B20481116B
:102B00006AC081E08093B10484EA5EC083E0809370
:102B1000B40410924804CFCF80914804803208F06A
:102B20004EC0E091480481E08E0F8093480480916C
:102B3000BB00F0E0E75BFB4F8083BDCF0E94CB146E
:102B400080914804803230F4E0914804F0E0E75B83
:102B5000FB4F10826091480470E0E091AD04F09169
:102B6000AE0489E494E009951092480436C084E0EC
:102B70008093B40410926A0410926904E091AF0447
:102B8000F091B004099580916904811105C081E03C
:102B90008093690410926B04E0916A0481E08E0FC7
:102BA00080936A04F0E0E559FB4F80818093BB007D
:102BB00090916A0480916904981708F47CCF85E8A5
:102BC0008093BC000AC085EC8093BC001092B404D2
:102BD00004C0109247040E94C114FF91EF91BF916D
:102BE000AF919F918F917F916F915F914F913F91A5
:102BF0002F910F900FBE0F901F901895DB018F93B0
:102C00009F930E946116BF91AF91A29F800D911D6D
:102C1000A39F900DB29F900D11240895991B79E008
:102C200004C0991F961708F0961B881F7A95C9F75C
:102C300080950895A1E21A2EAA1BBB1BFD010DC0B1
:102C4000AA1FBB1FEE1FFF1FA217B307E407F5075C
:102C500020F0A21BB30BE40BF50B661F771F881F38
:102C6000991F1A9469F760957095809590959B01CE
:102C7000AC01BD01CF010895052E97FB1EF4009411
:102C80000E94531657FD07D00E941A1607FC03D066
:102C90004EF40C94531650954095309521953F4F26
:102CA0004F4F5F4F089590958095709561957F4F38
:102CB0008F4F9F4F0895EE0FFF1F0590F491E02D69
:102CC00009940E946C16A59F900DB49F900DA49F2F
:102CD000800D911D11240895A29FB001B39FC001E2
:102CE000A39F700D811D1124911DB29F700D811D38
:102CF0001124911D0895CF93DF938230910510F434
:102D000082E090E0E091B704F091B80420E030E078
:102D1000C0E0D0E0309711F1408151814817590748
:102D2000C0F04817590761F482819381209719F008
:102D30009B838A832BC09093B8048093B70426C0EA
:102D40002115310519F04217530718F49A01BE01F5
:102D5000DF01EF010280F381E02DDCCF2115310589
:102D600009F1281B390B2430310590F412968D910E
:102D70009C9113976115710521F0FB019383828368
:102D800004C09093B8048093B704FD01329644C008
:102D9000FD01E20FF31F81939193225031092D938E
:102DA0003C933AC02091B5043091B604232B41F4F2
:102DB00020910201309103013093B6042093B504B1
:102DC00020910001309101012115310541F42DB709
:102DD0003EB74091040150910501241B350BE09151
:102DE000B504F091B604E217F307A0F42E1B3F0BD5
:102DF0002817390778F0AC014E5F5F4F241735076D
:102E000048F04E0F5F1F5093B6044093B504819372
:102E1000919302C0E0E0F0E0CF01DF91CF910895FF
:102E20000F931F93CF93DF93009709F48CC0FC019D
:102E30003297138212820091B7041091B8040115E1
:102E4000110581F420813181820F931F2091B504F7
:102E50003091B6042817390779F5F093B604E0935A
:102E6000B50471C0D80140E050E0AE17BF0750F480
:102E700012962D913C911397AD012115310509F161
:102E8000D901F3CF9D01DA013383228360817181FF
:102E9000860F971F8217930769F4EC012881398107
:102EA000260F371F2E5F3F4F318320838A819B81FE
:102EB00093838283452B29F4F093B804E093B704FD
:102EC00042C01396FC93EE931297ED0149915991EC
:102ED0009E01240F351FE217F30771F48081918161
:102EE000840F951F029611969C938E9382819381F5
:102EF00013969C938E931297E0E0F0E0D80112961F
:102F00008D919C911397009719F0F8018C01F6CFE1
:102F10008D919C9198012E5F3F4F820F931F2091BE
:102F2000B5043091B6042817390769F4309729F4AD
:102F30001092B8041092B70402C013821282109348
:102F4000B6040093B504DF91CF911F910F910895BE
:102F5000FB01DC014150504048F001900D920020EF
:102F6000C9F701C01D9241505040E0F70895FC019F
:102F700081E090E00190061609F4CF010020D1F71E
:102F800001970895FB0151915523A9F0BF01DC0180
:102F90004D9145174111E1F759F4CD010190002001
:102FA00049F04D9140154111C9F3FB014111EFCF9B
:0C2FB00081E090E001970895F894FFCFB5
:102FBC000000B9042000FF1300014D6178207365F7
:102FCC0072766F7320617474616368656400556E0A
:102FDC006B6E6F776E2070696E206D6F6465002E5E
:102FEC002E2F2E2F536B657463682E6370700049FF
:102FFC0032433A20546F6F206D616E792062797480
:10300C006573207265636569766564004932433A7D
:10301C0020546F6F20666577206279746573207217
:10302C00656365697665640031302D626974206171
:10303C00646472657373696E67206E6F7420737548
:10304C0070706F7274656400746F6F206D616E794F
:10305C0020717565726965730000000000E210B2A2
:10306C001086108E10A210B11000000000351271E5
:0A307C0013B611D011C21113120097
:00000001FF
